{
  "_format": "hh-sol-artifact-1",
  "contractName": "NFT",
  "sourceName": "contracts/NFT.sol",
  "abi": [
    {
      "inputs": [],
      "stateMutability": "nonpayable",
      "type": "constructor"
    },
    {
      "inputs": [],
      "name": "ERC721EnumerableForbiddenBatchMint",
      "type": "error"
    },
    {
      "inputs": [
        {
          "internalType": "address",
          "name": "sender",
          "type": "address"
        },
        {
          "internalType": "uint256",
          "name": "tokenId",
          "type": "uint256"
        },
        {
          "internalType": "address",
          "name": "owner",
          "type": "address"
        }
      ],
      "name": "ERC721IncorrectOwner",
      "type": "error"
    },
    {
      "inputs": [
        {
          "internalType": "address",
          "name": "operator",
          "type": "address"
        },
        {
          "internalType": "uint256",
          "name": "tokenId",
          "type": "uint256"
        }
      ],
      "name": "ERC721InsufficientApproval",
      "type": "error"
    },
    {
      "inputs": [
        {
          "internalType": "address",
          "name": "approver",
          "type": "address"
        }
      ],
      "name": "ERC721InvalidApprover",
      "type": "error"
    },
    {
      "inputs": [
        {
          "internalType": "address",
          "name": "operator",
          "type": "address"
        }
      ],
      "name": "ERC721InvalidOperator",
      "type": "error"
    },
    {
      "inputs": [
        {
          "internalType": "address",
          "name": "owner",
          "type": "address"
        }
      ],
      "name": "ERC721InvalidOwner",
      "type": "error"
    },
    {
      "inputs": [
        {
          "internalType": "address",
          "name": "receiver",
          "type": "address"
        }
      ],
      "name": "ERC721InvalidReceiver",
      "type": "error"
    },
    {
      "inputs": [
        {
          "internalType": "address",
          "name": "sender",
          "type": "address"
        }
      ],
      "name": "ERC721InvalidSender",
      "type": "error"
    },
    {
      "inputs": [
        {
          "internalType": "uint256",
          "name": "tokenId",
          "type": "uint256"
        }
      ],
      "name": "ERC721NonexistentToken",
      "type": "error"
    },
    {
      "inputs": [
        {
          "internalType": "address",
          "name": "owner",
          "type": "address"
        },
        {
          "internalType": "uint256",
          "name": "index",
          "type": "uint256"
        }
      ],
      "name": "ERC721OutOfBoundsIndex",
      "type": "error"
    },
    {
      "inputs": [],
      "name": "EnforcedPause",
      "type": "error"
    },
    {
      "inputs": [],
      "name": "ExpectedPause",
      "type": "error"
    },
    {
      "inputs": [
        {
          "internalType": "address",
          "name": "owner",
          "type": "address"
        }
      ],
      "name": "OwnableInvalidOwner",
      "type": "error"
    },
    {
      "inputs": [
        {
          "internalType": "address",
          "name": "account",
          "type": "address"
        }
      ],
      "name": "OwnableUnauthorizedAccount",
      "type": "error"
    },
    {
      "anonymous": false,
      "inputs": [
        {
          "indexed": true,
          "internalType": "address",
          "name": "owner",
          "type": "address"
        },
        {
          "indexed": true,
          "internalType": "address",
          "name": "approved",
          "type": "address"
        },
        {
          "indexed": true,
          "internalType": "uint256",
          "name": "tokenId",
          "type": "uint256"
        }
      ],
      "name": "Approval",
      "type": "event"
    },
    {
      "anonymous": false,
      "inputs": [
        {
          "indexed": true,
          "internalType": "address",
          "name": "owner",
          "type": "address"
        },
        {
          "indexed": true,
          "internalType": "address",
          "name": "operator",
          "type": "address"
        },
        {
          "indexed": false,
          "internalType": "bool",
          "name": "approved",
          "type": "bool"
        }
      ],
      "name": "ApprovalForAll",
      "type": "event"
    },
    {
      "anonymous": false,
      "inputs": [
        {
          "indexed": false,
          "internalType": "uint256",
          "name": "_fromTokenId",
          "type": "uint256"
        },
        {
          "indexed": false,
          "internalType": "uint256",
          "name": "_toTokenId",
          "type": "uint256"
        }
      ],
      "name": "BatchMetadataUpdate",
      "type": "event"
    },
    {
      "anonymous": false,
      "inputs": [
        {
          "indexed": false,
          "internalType": "uint256",
          "name": "_tokenId",
          "type": "uint256"
        }
      ],
      "name": "MetadataUpdate",
      "type": "event"
    },
    {
      "anonymous": false,
      "inputs": [
        {
          "indexed": true,
          "internalType": "address",
          "name": "previousOwner",
          "type": "address"
        },
        {
          "indexed": true,
          "internalType": "address",
          "name": "newOwner",
          "type": "address"
        }
      ],
      "name": "OwnershipTransferred",
      "type": "event"
    },
    {
      "anonymous": false,
      "inputs": [
        {
          "indexed": false,
          "internalType": "address",
          "name": "account",
          "type": "address"
        }
      ],
      "name": "Paused",
      "type": "event"
    },
    {
      "anonymous": false,
      "inputs": [
        {
          "indexed": true,
          "internalType": "address",
          "name": "from",
          "type": "address"
        },
        {
          "indexed": true,
          "internalType": "address",
          "name": "to",
          "type": "address"
        },
        {
          "indexed": true,
          "internalType": "uint256",
          "name": "tokenId",
          "type": "uint256"
        }
      ],
      "name": "Transfer",
      "type": "event"
    },
    {
      "anonymous": false,
      "inputs": [
        {
          "indexed": false,
          "internalType": "address",
          "name": "account",
          "type": "address"
        }
      ],
      "name": "Unpaused",
      "type": "event"
    },
    {
      "inputs": [
        {
          "internalType": "address",
          "name": "to",
          "type": "address"
        },
        {
          "internalType": "uint256",
          "name": "tokenId",
          "type": "uint256"
        }
      ],
      "name": "approve",
      "outputs": [],
      "stateMutability": "nonpayable",
      "type": "function"
    },
    {
      "inputs": [
        {
          "internalType": "address",
          "name": "owner",
          "type": "address"
        }
      ],
      "name": "balanceOf",
      "outputs": [
        {
          "internalType": "uint256",
          "name": "",
          "type": "uint256"
        }
      ],
      "stateMutability": "view",
      "type": "function"
    },
    {
      "inputs": [
        {
          "internalType": "uint256",
          "name": "tokenId",
          "type": "uint256"
        }
      ],
      "name": "burn",
      "outputs": [],
      "stateMutability": "nonpayable",
      "type": "function"
    },
    {
      "inputs": [
        {
          "internalType": "uint256",
          "name": "tokenId",
          "type": "uint256"
        }
      ],
      "name": "getApproved",
      "outputs": [
        {
          "internalType": "address",
          "name": "",
          "type": "address"
        }
      ],
      "stateMutability": "view",
      "type": "function"
    },
    {
      "inputs": [
        {
          "internalType": "address",
          "name": "owner",
          "type": "address"
        },
        {
          "internalType": "address",
          "name": "operator",
          "type": "address"
        }
      ],
      "name": "isApprovedForAll",
      "outputs": [
        {
          "internalType": "bool",
          "name": "",
          "type": "bool"
        }
      ],
      "stateMutability": "view",
      "type": "function"
    },
    {
      "inputs": [],
      "name": "name",
      "outputs": [
        {
          "internalType": "string",
          "name": "",
          "type": "string"
        }
      ],
      "stateMutability": "view",
      "type": "function"
    },
    {
      "inputs": [],
      "name": "owner",
      "outputs": [
        {
          "internalType": "address",
          "name": "",
          "type": "address"
        }
      ],
      "stateMutability": "view",
      "type": "function"
    },
    {
      "inputs": [
        {
          "internalType": "uint256",
          "name": "tokenId",
          "type": "uint256"
        }
      ],
      "name": "ownerOf",
      "outputs": [
        {
          "internalType": "address",
          "name": "",
          "type": "address"
        }
      ],
      "stateMutability": "view",
      "type": "function"
    },
    {
      "inputs": [],
      "name": "pause",
      "outputs": [],
      "stateMutability": "nonpayable",
      "type": "function"
    },
    {
      "inputs": [],
      "name": "paused",
      "outputs": [
        {
          "internalType": "bool",
          "name": "",
          "type": "bool"
        }
      ],
      "stateMutability": "view",
      "type": "function"
    },
    {
      "inputs": [],
      "name": "renounceOwnership",
      "outputs": [],
      "stateMutability": "nonpayable",
      "type": "function"
    },
    {
      "inputs": [
        {
          "internalType": "address",
          "name": "to",
          "type": "address"
        },
        {
          "internalType": "string",
          "name": "_tokenURI",
          "type": "string"
        }
      ],
      "name": "safeMint",
      "outputs": [],
      "stateMutability": "nonpayable",
      "type": "function"
    },
    {
      "inputs": [
        {
          "internalType": "address",
          "name": "from",
          "type": "address"
        },
        {
          "internalType": "address",
          "name": "to",
          "type": "address"
        },
        {
          "internalType": "uint256",
          "name": "tokenId",
          "type": "uint256"
        }
      ],
      "name": "safeTransferFrom",
      "outputs": [],
      "stateMutability": "nonpayable",
      "type": "function"
    },
    {
      "inputs": [
        {
          "internalType": "address",
          "name": "from",
          "type": "address"
        },
        {
          "internalType": "address",
          "name": "to",
          "type": "address"
        },
        {
          "internalType": "uint256",
          "name": "tokenId",
          "type": "uint256"
        },
        {
          "internalType": "bytes",
          "name": "data",
          "type": "bytes"
        }
      ],
      "name": "safeTransferFrom",
      "outputs": [],
      "stateMutability": "nonpayable",
      "type": "function"
    },
    {
      "inputs": [
        {
          "internalType": "address",
          "name": "operator",
          "type": "address"
        },
        {
          "internalType": "bool",
          "name": "approved",
          "type": "bool"
        }
      ],
      "name": "setApprovalForAll",
      "outputs": [],
      "stateMutability": "nonpayable",
      "type": "function"
    },
    {
      "inputs": [
        {
          "internalType": "uint256",
          "name": "tokenId",
          "type": "uint256"
        },
        {
          "internalType": "string",
          "name": "_tokenURI",
          "type": "string"
        }
      ],
      "name": "setTokenURI",
      "outputs": [],
      "stateMutability": "nonpayable",
      "type": "function"
    },
    {
      "inputs": [
        {
          "internalType": "bytes4",
          "name": "interfaceId",
          "type": "bytes4"
        }
      ],
      "name": "supportsInterface",
      "outputs": [
        {
          "internalType": "bool",
          "name": "",
          "type": "bool"
        }
      ],
      "stateMutability": "view",
      "type": "function"
    },
    {
      "inputs": [],
      "name": "symbol",
      "outputs": [
        {
          "internalType": "string",
          "name": "",
          "type": "string"
        }
      ],
      "stateMutability": "view",
      "type": "function"
    },
    {
      "inputs": [
        {
          "internalType": "uint256",
          "name": "index",
          "type": "uint256"
        }
      ],
      "name": "tokenByIndex",
      "outputs": [
        {
          "internalType": "uint256",
          "name": "",
          "type": "uint256"
        }
      ],
      "stateMutability": "view",
      "type": "function"
    },
    {
      "inputs": [
        {
          "internalType": "address",
          "name": "owner",
          "type": "address"
        },
        {
          "internalType": "uint256",
          "name": "index",
          "type": "uint256"
        }
      ],
      "name": "tokenOfOwnerByIndex",
      "outputs": [
        {
          "internalType": "uint256",
          "name": "",
          "type": "uint256"
        }
      ],
      "stateMutability": "view",
      "type": "function"
    },
    {
      "inputs": [
        {
          "internalType": "uint256",
          "name": "tokenId",
          "type": "uint256"
        }
      ],
      "name": "tokenURI",
      "outputs": [
        {
          "internalType": "string",
          "name": "",
          "type": "string"
        }
      ],
      "stateMutability": "view",
      "type": "function"
    },
    {
      "inputs": [],
      "name": "totalSupply",
      "outputs": [
        {
          "internalType": "uint256",
          "name": "",
          "type": "uint256"
        }
      ],
      "stateMutability": "view",
      "type": "function"
    },
    {
      "inputs": [
        {
          "internalType": "address",
          "name": "from",
          "type": "address"
        },
        {
          "internalType": "address",
          "name": "to",
          "type": "address"
        },
        {
          "internalType": "uint256",
          "name": "tokenId",
          "type": "uint256"
        }
      ],
      "name": "transferFrom",
      "outputs": [],
      "stateMutability": "nonpayable",
      "type": "function"
    },
    {
      "inputs": [
        {
          "internalType": "address",
          "name": "newOwner",
          "type": "address"
        }
      ],
      "name": "transferOwnership",
      "outputs": [],
      "stateMutability": "nonpayable",
      "type": "function"
    },
    {
      "inputs": [],
      "name": "unpause",
      "outputs": [],
      "stateMutability": "nonpayable",
      "type": "function"
    }
  ],
  "bytecode": "0x6080604052612710600b60156101000a81548161ffff021916908361ffff1602179055503480156200003057600080fd5b50336040518060400160405280600b81526020017f4861726477617265746f720000000000000000000000000000000000000000008152506040518060400160405280600381526020017f48415700000000000000000000000000000000000000000000000000000000008152508160009081620000af9190620004ac565b508060019081620000c19190620004ac565b5050506000600b60006101000a81548160ff021916908315150217905550600073ffffffffffffffffffffffffffffffffffffffff168173ffffffffffffffffffffffffffffffffffffffff1603620001545760006040517f1e4fbdf70000000000000000000000000000000000000000000000000000000081526004016200014b9190620005d8565b60405180910390fd5b62000165816200016c60201b60201c565b50620005f5565b6000600b60019054906101000a900473ffffffffffffffffffffffffffffffffffffffff16905081600b60016101000a81548173ffffffffffffffffffffffffffffffffffffffff021916908373ffffffffffffffffffffffffffffffffffffffff1602179055508173ffffffffffffffffffffffffffffffffffffffff168173ffffffffffffffffffffffffffffffffffffffff167f8be0079c531659141344cd1fd0a4f28419497f9722a3daafe3b4186f6b6457e060405160405180910390a35050565b600081519050919050565b7f4e487b7100000000000000000000000000000000000000000000000000000000600052604160045260246000fd5b7f4e487b7100000000000000000000000000000000000000000000000000000000600052602260045260246000fd5b60006002820490506001821680620002b457607f821691505b602082108103620002ca57620002c96200026c565b5b50919050565b60008190508160005260206000209050919050565b60006020601f8301049050919050565b600082821b905092915050565b600060088302620003347fffffffffffffffffffffffffffffffffffffffffffffffffffffffffffffffff82620002f5565b620003408683620002f5565b95508019841693508086168417925050509392505050565b6000819050919050565b6000819050919050565b60006200038d62000387620003818462000358565b62000362565b62000358565b9050919050565b6000819050919050565b620003a9836200036c565b620003c1620003b88262000394565b84845462000302565b825550505050565b600090565b620003d8620003c9565b620003e58184846200039e565b505050565b5b818110156200040d5762000401600082620003ce565b600181019050620003eb565b5050565b601f8211156200045c576200042681620002d0565b6200043184620002e5565b8101602085101562000441578190505b620004596200045085620002e5565b830182620003ea565b50505b505050565b600082821c905092915050565b6000620004816000198460080262000461565b1980831691505092915050565b60006200049c83836200046e565b9150826002028217905092915050565b620004b78262000232565b67ffffffffffffffff811115620004d357620004d26200023d565b5b620004df82546200029b565b620004ec82828562000411565b600060209050601f8311600181146200052457600084156200050f578287015190505b6200051b85826200048e565b8655506200058b565b601f1984166200053486620002d0565b60005b828110156200055e5784890151825560018201915060208501945060208101905062000537565b868310156200057e57848901516200057a601f8916826200046e565b8355505b6001600288020188555050505b505050505050565b600073ffffffffffffffffffffffffffffffffffffffff82169050919050565b6000620005c08262000593565b9050919050565b620005d281620005b3565b82525050565b6000602082019050620005ef6000830184620005c7565b92915050565b61312d80620006056000396000f3fe608060405234801561001057600080fd5b50600436106101735760003560e01c80635c975abb116100de57806395d89b4111610097578063c87b56dd11610071578063c87b56dd14610410578063d204c45e14610440578063e985e9c51461045c578063f2fde38b1461048c57610173565b806395d89b41146103ba578063a22cb465146103d8578063b88d4fde146103f457610173565b80635c975abb1461030a5780636352211e1461032857806370a0823114610358578063715018a6146103885780638456cb59146103925780638da5cb5b1461039c57610173565b806323b872dd1161013057806323b872dd1461024c5780632f745c59146102685780633f4ba83a1461029857806342842e0e146102a257806342966c68146102be5780634f6ccce7146102da57610173565b806301ffc9a71461017857806306fdde03146101a8578063081812fc146101c6578063095ea7b3146101f6578063162094c41461021257806318160ddd1461022e575b600080fd5b610192600480360381019061018d919061242b565b6104a8565b60405161019f9190612473565b60405180910390f35b6101b06104ba565b6040516101bd919061251e565b60405180910390f35b6101e060048036038101906101db9190612576565b61054c565b6040516101ed91906125e4565b60405180910390f35b610210600480360381019061020b919061262b565b610568565b005b61022c600480360381019061022791906127a0565b61057e565b005b610236610594565b604051610243919061280b565b60405180910390f35b61026660048036038101906102619190612826565b6105a1565b005b610282600480360381019061027d919061262b565b6106a3565b60405161028f919061280b565b60405180910390f35b6102a061074c565b005b6102bc60048036038101906102b79190612826565b61075e565b005b6102d860048036038101906102d39190612576565b61077e565b005b6102f460048036038101906102ef9190612576565b610795565b604051610301919061280b565b60405180910390f35b61031261080b565b60405161031f9190612473565b60405180910390f35b610342600480360381019061033d9190612576565b610822565b60405161034f91906125e4565b60405180910390f35b610372600480360381019061036d9190612879565b610834565b60405161037f919061280b565b60405180910390f35b6103906108ee565b005b61039a610902565b005b6103a4610914565b6040516103b191906125e4565b60405180910390f35b6103c261093e565b6040516103cf919061251e565b60405180910390f35b6103f260048036038101906103ed91906128d2565b6109d0565b005b61040e600480360381019061040991906129b3565b6109e6565b005b61042a60048036038101906104259190612576565b610a03565b604051610437919061251e565b60405180910390f35b61045a60048036038101906104559190612a36565b610a15565b005b61047660048036038101906104719190612a92565b610aaa565b6040516104839190612473565b60405180910390f35b6104a660048036038101906104a19190612879565b610b3e565b005b60006104b382610bc4565b9050919050565b6060600080546104c990612b01565b80601f01602080910402602001604051908101604052809291908181526020018280546104f590612b01565b80156105425780601f1061051757610100808354040283529160200191610542565b820191906000526020600020905b81548152906001019060200180831161052557829003601f168201915b5050505050905090565b600061055782610c25565b5061056182610cad565b9050919050565b61057a8282610575610cea565b610cf2565b5050565b610586610d04565b6105908282610d8b565b5050565b6000600880549050905090565b600073ffffffffffffffffffffffffffffffffffffffff168273ffffffffffffffffffffffffffffffffffffffff16036106135760006040517f64a0ae9200000000000000000000000000000000000000000000000000000000815260040161060a91906125e4565b60405180910390fd5b60006106278383610622610cea565b610de7565b90508373ffffffffffffffffffffffffffffffffffffffff168173ffffffffffffffffffffffffffffffffffffffff161461069d578382826040517f64283d7b00000000000000000000000000000000000000000000000000000000815260040161069493929190612b32565b60405180910390fd5b50505050565b60006106ae83610834565b82106106f35782826040517fa57d13dc0000000000000000000000000000000000000000000000000000000081526004016106ea929190612b69565b60405180910390fd5b600660008473ffffffffffffffffffffffffffffffffffffffff1673ffffffffffffffffffffffffffffffffffffffff168152602001908152602001600020600083815260200190815260200160002054905092915050565b610754610d04565b61075c610dfd565b565b610779838383604051806020016040528060008152506109e6565b505050565b61079160008261078c610cea565b610de7565b5050565b600061079f610594565b82106107e5576000826040517fa57d13dc0000000000000000000000000000000000000000000000000000000081526004016107dc929190612b69565b60405180910390fd5b600882815481106107f9576107f8612b92565b5b90600052602060002001549050919050565b6000600b60009054906101000a900460ff16905090565b600061082d82610c25565b9050919050565b60008073ffffffffffffffffffffffffffffffffffffffff168273ffffffffffffffffffffffffffffffffffffffff16036108a75760006040517f89c62b6400000000000000000000000000000000000000000000000000000000815260040161089e91906125e4565b60405180910390fd5b600360008373ffffffffffffffffffffffffffffffffffffffff1673ffffffffffffffffffffffffffffffffffffffff168152602001908152602001600020549050919050565b6108f6610d04565b6109006000610e60565b565b61090a610d04565b610912610f26565b565b6000600b60019054906101000a900473ffffffffffffffffffffffffffffffffffffffff16905090565b60606001805461094d90612b01565b80601f016020809104026020016040519081016040528092919081815260200182805461097990612b01565b80156109c65780601f1061099b576101008083540402835291602001916109c6565b820191906000526020600020905b8154815290600101906020018083116109a957829003601f168201915b5050505050905090565b6109e26109db610cea565b8383610f89565b5050565b6109f18484846105a1565b6109fd848484846110f8565b50505050565b6060610a0e826112af565b9050919050565b610a1d610d04565b600b60159054906101000a900461ffff1661ffff16600c541115610a76576040517f08c379a0000000000000000000000000000000000000000000000000000000008152600401610a6d90612c0d565b60405180910390fd5b6000600c6000815480929190610a8b90612c5c565b919050559050610a9b83826113c2565b610aa58183610d8b565b505050565b6000600560008473ffffffffffffffffffffffffffffffffffffffff1673ffffffffffffffffffffffffffffffffffffffff16815260200190815260200160002060008373ffffffffffffffffffffffffffffffffffffffff1673ffffffffffffffffffffffffffffffffffffffff16815260200190815260200160002060009054906101000a900460ff16905092915050565b610b46610d04565b600073ffffffffffffffffffffffffffffffffffffffff168173ffffffffffffffffffffffffffffffffffffffff1603610bb85760006040517f1e4fbdf7000000000000000000000000000000000000000000000000000000008152600401610baf91906125e4565b60405180910390fd5b610bc181610e60565b50565b6000634906490660e01b7bffffffffffffffffffffffffffffffffffffffffffffffffffffffff1916827bffffffffffffffffffffffffffffffffffffffffffffffffffffffff19161480610c1e5750610c1d826113e0565b5b9050919050565b600080610c318361145a565b9050600073ffffffffffffffffffffffffffffffffffffffff168173ffffffffffffffffffffffffffffffffffffffff1603610ca457826040517f7e273289000000000000000000000000000000000000000000000000000000008152600401610c9b919061280b565b60405180910390fd5b80915050919050565b60006004600083815260200190815260200160002060009054906101000a900473ffffffffffffffffffffffffffffffffffffffff169050919050565b600033905090565b610cff8383836001611497565b505050565b610d0c610cea565b73ffffffffffffffffffffffffffffffffffffffff16610d2a610914565b73ffffffffffffffffffffffffffffffffffffffff1614610d8957610d4d610cea565b6040517f118cdaa7000000000000000000000000000000000000000000000000000000008152600401610d8091906125e4565b60405180910390fd5b565b80600a60008481526020019081526020016000209081610dab9190612e50565b507ff8e1a15aba9398e019f0b49df1a4fde98ee17ae345cb5f6b5e2c27f5033e8ce782604051610ddb919061280b565b60405180910390a15050565b6000610df484848461165c565b90509392505050565b610e0561167a565b6000600b60006101000a81548160ff0219169083151502179055507f5db9ee0a495bf2e6ff9c91a7834c1ba4fdd244a5e8aa4e537bd38aeae4b073aa610e49610cea565b604051610e5691906125e4565b60405180910390a1565b6000600b60019054906101000a900473ffffffffffffffffffffffffffffffffffffffff16905081600b60016101000a81548173ffffffffffffffffffffffffffffffffffffffff021916908373ffffffffffffffffffffffffffffffffffffffff1602179055508173ffffffffffffffffffffffffffffffffffffffff168173ffffffffffffffffffffffffffffffffffffffff167f8be0079c531659141344cd1fd0a4f28419497f9722a3daafe3b4186f6b6457e060405160405180910390a35050565b610f2e6116ba565b6001600b60006101000a81548160ff0219169083151502179055507f62e78cea01bee320cd4e420270b5ea74000d11b0c9f74754ebdbfc544b05a258610f72610cea565b604051610f7f91906125e4565b60405180910390a1565b600073ffffffffffffffffffffffffffffffffffffffff168273ffffffffffffffffffffffffffffffffffffffff1603610ffa57816040517f5b08ba18000000000000000000000000000000000000000000000000000000008152600401610ff191906125e4565b60405180910390fd5b80600560008573ffffffffffffffffffffffffffffffffffffffff1673ffffffffffffffffffffffffffffffffffffffff16815260200190815260200160002060008473ffffffffffffffffffffffffffffffffffffffff1673ffffffffffffffffffffffffffffffffffffffff16815260200190815260200160002060006101000a81548160ff0219169083151502179055508173ffffffffffffffffffffffffffffffffffffffff168373ffffffffffffffffffffffffffffffffffffffff167f17307eab39ab6107e8899845ad3d59bd9653f200f220920489ca2b5937696c31836040516110eb9190612473565b60405180910390a3505050565b60008373ffffffffffffffffffffffffffffffffffffffff163b11156112a9578273ffffffffffffffffffffffffffffffffffffffff1663150b7a0261113c610cea565b8685856040518563ffffffff1660e01b815260040161115e9493929190612f77565b6020604051808303816000875af192505050801561119a57506040513d601f19601f820116820180604052508101906111979190612fd8565b60015b61121e573d80600081146111ca576040519150601f19603f3d011682016040523d82523d6000602084013e6111cf565b606091505b50600081510361121657836040517f64a0ae9200000000000000000000000000000000000000000000000000000000815260040161120d91906125e4565b60405180910390fd5b805181602001fd5b63150b7a0260e01b7bffffffffffffffffffffffffffffffffffffffffffffffffffffffff1916817bffffffffffffffffffffffffffffffffffffffffffffffffffffffff1916146112a757836040517f64a0ae9200000000000000000000000000000000000000000000000000000000815260040161129e91906125e4565b60405180910390fd5b505b50505050565b60606112ba82610c25565b506000600a600084815260200190815260200160002080546112db90612b01565b80601f016020809104026020016040519081016040528092919081815260200182805461130790612b01565b80156113545780601f1061132957610100808354040283529160200191611354565b820191906000526020600020905b81548152906001019060200180831161133757829003601f168201915b5050505050905060006113656116fb565b9050600081510361137a5781925050506113bd565b6000825111156113af578082604051602001611397929190613041565b604051602081830303815290604052925050506113bd565b6113b884611712565b925050505b919050565b6113dc82826040518060200160405280600081525061177b565b5050565b60007f780e9d63000000000000000000000000000000000000000000000000000000007bffffffffffffffffffffffffffffffffffffffffffffffffffffffff1916827bffffffffffffffffffffffffffffffffffffffffffffffffffffffff19161480611453575061145282611797565b5b9050919050565b60006002600083815260200190815260200160002060009054906101000a900473ffffffffffffffffffffffffffffffffffffffff169050919050565b80806114d05750600073ffffffffffffffffffffffffffffffffffffffff168273ffffffffffffffffffffffffffffffffffffffff1614155b156116045760006114e084610c25565b9050600073ffffffffffffffffffffffffffffffffffffffff168373ffffffffffffffffffffffffffffffffffffffff161415801561154b57508273ffffffffffffffffffffffffffffffffffffffff168173ffffffffffffffffffffffffffffffffffffffff1614155b801561155e575061155c8184610aaa565b155b156115a057826040517fa9fbf51f00000000000000000000000000000000000000000000000000000000815260040161159791906125e4565b60405180910390fd5b811561160257838573ffffffffffffffffffffffffffffffffffffffff168273ffffffffffffffffffffffffffffffffffffffff167f8c5be1e5ebec7d5bd14f71427d1e84f3dd0314c0f7b2291e5b200ac8c7c3b92560405160405180910390a45b505b836004600085815260200190815260200160002060006101000a81548173ffffffffffffffffffffffffffffffffffffffff021916908373ffffffffffffffffffffffffffffffffffffffff16021790555050505050565b60006116666116ba565b611671848484611879565b90509392505050565b61168261080b565b6116b8576040517f8dfc202b00000000000000000000000000000000000000000000000000000000815260040160405180910390fd5b565b6116c261080b565b156116f9576040517fd93c066500000000000000000000000000000000000000000000000000000000815260040160405180910390fd5b565b606060405180602001604052806000815250905090565b606061171d82610c25565b5060006117286116fb565b905060008151116117485760405180602001604052806000815250611773565b8061175284611996565b604051602001611763929190613041565b6040516020818303038152906040525b915050919050565b6117858383611a64565b61179260008484846110f8565b505050565b60007f80ac58cd000000000000000000000000000000000000000000000000000000007bffffffffffffffffffffffffffffffffffffffffffffffffffffffff1916827bffffffffffffffffffffffffffffffffffffffffffffffffffffffff1916148061186257507f5b5e139f000000000000000000000000000000000000000000000000000000007bffffffffffffffffffffffffffffffffffffffffffffffffffffffff1916827bffffffffffffffffffffffffffffffffffffffffffffffffffffffff1916145b80611872575061187182611b5d565b5b9050919050565b600080611887858585611bc7565b9050600073ffffffffffffffffffffffffffffffffffffffff168173ffffffffffffffffffffffffffffffffffffffff16036118cb576118c684611de1565b61190a565b8473ffffffffffffffffffffffffffffffffffffffff168173ffffffffffffffffffffffffffffffffffffffff1614611909576119088185611e2a565b5b5b600073ffffffffffffffffffffffffffffffffffffffff168573ffffffffffffffffffffffffffffffffffffffff160361194c5761194784611f8b565b61198b565b8473ffffffffffffffffffffffffffffffffffffffff168173ffffffffffffffffffffffffffffffffffffffff161461198a57611989858561205c565b5b5b809150509392505050565b6060600060016119a5846120e7565b01905060008167ffffffffffffffff8111156119c4576119c3612675565b5b6040519080825280601f01601f1916602001820160405280156119f65781602001600182028036833780820191505090505b509050600082602001820190505b600115611a59578080600190039150507f3031323334353637383961626364656600000000000000000000000000000000600a86061a8153600a8581611a4d57611a4c613065565b5b04945060008503611a04575b819350505050919050565b600073ffffffffffffffffffffffffffffffffffffffff168273ffffffffffffffffffffffffffffffffffffffff1603611ad65760006040517f64a0ae92000000000000000000000000000000000000000000000000000000008152600401611acd91906125e4565b60405180910390fd5b6000611ae483836000610de7565b9050600073ffffffffffffffffffffffffffffffffffffffff168173ffffffffffffffffffffffffffffffffffffffff1614611b585760006040517f73c6ac6e000000000000000000000000000000000000000000000000000000008152600401611b4f91906125e4565b60405180910390fd5b505050565b60007f01ffc9a7000000000000000000000000000000000000000000000000000000007bffffffffffffffffffffffffffffffffffffffffffffffffffffffff1916827bffffffffffffffffffffffffffffffffffffffffffffffffffffffff1916149050919050565b600080611bd38461145a565b9050600073ffffffffffffffffffffffffffffffffffffffff168373ffffffffffffffffffffffffffffffffffffffff1614611c1557611c1481848661223a565b5b600073ffffffffffffffffffffffffffffffffffffffff168173ffffffffffffffffffffffffffffffffffffffff1614611ca657611c57600085600080611497565b6001600360008373ffffffffffffffffffffffffffffffffffffffff1673ffffffffffffffffffffffffffffffffffffffff168152602001908152602001600020600082825403925050819055505b600073ffffffffffffffffffffffffffffffffffffffff168573ffffffffffffffffffffffffffffffffffffffff1614611d29576001600360008773ffffffffffffffffffffffffffffffffffffffff1673ffffffffffffffffffffffffffffffffffffffff168152602001908152602001600020600082825401925050819055505b846002600086815260200190815260200160002060006101000a81548173ffffffffffffffffffffffffffffffffffffffff021916908373ffffffffffffffffffffffffffffffffffffffff160217905550838573ffffffffffffffffffffffffffffffffffffffff168273ffffffffffffffffffffffffffffffffffffffff167fddf252ad1be2c89b69c2b068fc378daa952ba7f163c4a11628f55a4df523b3ef60405160405180910390a4809150509392505050565b6008805490506009600083815260200190815260200160002081905550600881908060018154018082558091505060019003906000526020600020016000909190919091505550565b6000611e3583610834565b9050600060076000848152602001908152602001600020549050818114611f1a576000600660008673ffffffffffffffffffffffffffffffffffffffff1673ffffffffffffffffffffffffffffffffffffffff168152602001908152602001600020600084815260200190815260200160002054905080600660008773ffffffffffffffffffffffffffffffffffffffff1673ffffffffffffffffffffffffffffffffffffffff168152602001908152602001600020600084815260200190815260200160002081905550816007600083815260200190815260200160002081905550505b6007600084815260200190815260200160002060009055600660008573ffffffffffffffffffffffffffffffffffffffff1673ffffffffffffffffffffffffffffffffffffffff16815260200190815260200160002060008381526020019081526020016000206000905550505050565b60006001600880549050611f9f9190613094565b9050600060096000848152602001908152602001600020549050600060088381548110611fcf57611fce612b92565b5b906000526020600020015490508060088381548110611ff157611ff0612b92565b5b9060005260206000200181905550816009600083815260200190815260200160002081905550600960008581526020019081526020016000206000905560088054806120405761203f6130c8565b5b6001900381819060005260206000200160009055905550505050565b6000600161206984610834565b6120739190613094565b905081600660008573ffffffffffffffffffffffffffffffffffffffff1673ffffffffffffffffffffffffffffffffffffffff168152602001908152602001600020600083815260200190815260200160002081905550806007600084815260200190815260200160002081905550505050565b600080600090507a184f03e93ff9f4daa797ed6e38ed64bf6a1f0100000000000000008310612145577a184f03e93ff9f4daa797ed6e38ed64bf6a1f010000000000000000838161213b5761213a613065565b5b0492506040810190505b6d04ee2d6d415b85acef81000000008310612182576d04ee2d6d415b85acef8100000000838161217857612177613065565b5b0492506020810190505b662386f26fc1000083106121b157662386f26fc1000083816121a7576121a6613065565b5b0492506010810190505b6305f5e10083106121da576305f5e10083816121d0576121cf613065565b5b0492506008810190505b61271083106121ff5761271083816121f5576121f4613065565b5b0492506004810190505b60648310612222576064838161221857612217613065565b5b0492506002810190505b600a8310612231576001810190505b80915050919050565b6122458383836122fe565b6122f957600073ffffffffffffffffffffffffffffffffffffffff168373ffffffffffffffffffffffffffffffffffffffff16036122ba57806040517f7e2732890000000000000000000000000000000000000000000000000000000081526004016122b1919061280b565b60405180910390fd5b81816040517f177e802f0000000000000000000000000000000000000000000000000000000081526004016122f0929190612b69565b60405180910390fd5b505050565b60008073ffffffffffffffffffffffffffffffffffffffff168373ffffffffffffffffffffffffffffffffffffffff16141580156123b657508273ffffffffffffffffffffffffffffffffffffffff168473ffffffffffffffffffffffffffffffffffffffff16148061237757506123768484610aaa565b5b806123b557508273ffffffffffffffffffffffffffffffffffffffff1661239d83610cad565b73ffffffffffffffffffffffffffffffffffffffff16145b5b90509392505050565b6000604051905090565b600080fd5b600080fd5b60007fffffffff0000000000000000000000000000000000000000000000000000000082169050919050565b612408816123d3565b811461241357600080fd5b50565b600081359050612425816123ff565b92915050565b600060208284031215612441576124406123c9565b5b600061244f84828501612416565b91505092915050565b60008115159050919050565b61246d81612458565b82525050565b60006020820190506124886000830184612464565b92915050565b600081519050919050565b600082825260208201905092915050565b60005b838110156124c85780820151818401526020810190506124ad565b60008484015250505050565b6000601f19601f8301169050919050565b60006124f08261248e565b6124fa8185612499565b935061250a8185602086016124aa565b612513816124d4565b840191505092915050565b6000602082019050818103600083015261253881846124e5565b905092915050565b6000819050919050565b61255381612540565b811461255e57600080fd5b50565b6000813590506125708161254a565b92915050565b60006020828403121561258c5761258b6123c9565b5b600061259a84828501612561565b91505092915050565b600073ffffffffffffffffffffffffffffffffffffffff82169050919050565b60006125ce826125a3565b9050919050565b6125de816125c3565b82525050565b60006020820190506125f960008301846125d5565b92915050565b612608816125c3565b811461261357600080fd5b50565b600081359050612625816125ff565b92915050565b60008060408385031215612642576126416123c9565b5b600061265085828601612616565b925050602061266185828601612561565b9150509250929050565b600080fd5b600080fd5b7f4e487b7100000000000000000000000000000000000000000000000000000000600052604160045260246000fd5b6126ad826124d4565b810181811067ffffffffffffffff821117156126cc576126cb612675565b5b80604052505050565b60006126df6123bf565b90506126eb82826126a4565b919050565b600067ffffffffffffffff82111561270b5761270a612675565b5b612714826124d4565b9050602081019050919050565b82818337600083830152505050565b600061274361273e846126f0565b6126d5565b90508281526020810184848401111561275f5761275e612670565b5b61276a848285612721565b509392505050565b600082601f8301126127875761278661266b565b5b8135612797848260208601612730565b91505092915050565b600080604083850312156127b7576127b66123c9565b5b60006127c585828601612561565b925050602083013567ffffffffffffffff8111156127e6576127e56123ce565b5b6127f285828601612772565b9150509250929050565b61280581612540565b82525050565b600060208201905061282060008301846127fc565b92915050565b60008060006060848603121561283f5761283e6123c9565b5b600061284d86828701612616565b935050602061285e86828701612616565b925050604061286f86828701612561565b9150509250925092565b60006020828403121561288f5761288e6123c9565b5b600061289d84828501612616565b91505092915050565b6128af81612458565b81146128ba57600080fd5b50565b6000813590506128cc816128a6565b92915050565b600080604083850312156128e9576128e86123c9565b5b60006128f785828601612616565b9250506020612908858286016128bd565b9150509250929050565b600067ffffffffffffffff82111561292d5761292c612675565b5b612936826124d4565b9050602081019050919050565b600061295661295184612912565b6126d5565b90508281526020810184848401111561297257612971612670565b5b61297d848285612721565b509392505050565b600082601f83011261299a5761299961266b565b5b81356129aa848260208601612943565b91505092915050565b600080600080608085870312156129cd576129cc6123c9565b5b60006129db87828801612616565b94505060206129ec87828801612616565b93505060406129fd87828801612561565b925050606085013567ffffffffffffffff811115612a1e57612a1d6123ce565b5b612a2a87828801612985565b91505092959194509250565b60008060408385031215612a4d57612a4c6123c9565b5b6000612a5b85828601612616565b925050602083013567ffffffffffffffff811115612a7c57612a7b6123ce565b5b612a8885828601612772565b9150509250929050565b60008060408385031215612aa957612aa86123c9565b5b6000612ab785828601612616565b9250506020612ac885828601612616565b9150509250929050565b7f4e487b7100000000000000000000000000000000000000000000000000000000600052602260045260246000fd5b60006002820490506001821680612b1957607f821691505b602082108103612b2c57612b2b612ad2565b5b50919050565b6000606082019050612b4760008301866125d5565b612b5460208301856127fc565b612b6160408301846125d5565b949350505050565b6000604082019050612b7e60008301856125d5565b612b8b60208301846127fc565b9392505050565b7f4e487b7100000000000000000000000000000000000000000000000000000000600052603260045260246000fd5b7f546f6b656e206361702065786365656465640000000000000000000000000000600082015250565b6000612bf7601283612499565b9150612c0282612bc1565b602082019050919050565b60006020820190508181036000830152612c2681612bea565b9050919050565b7f4e487b7100000000000000000000000000000000000000000000000000000000600052601160045260246000fd5b6000612c6782612540565b91507fffffffffffffffffffffffffffffffffffffffffffffffffffffffffffffffff8203612c9957612c98612c2d565b5b600182019050919050565b60008190508160005260206000209050919050565b60006020601f8301049050919050565b600082821b905092915050565b600060088302612d067fffffffffffffffffffffffffffffffffffffffffffffffffffffffffffffffff82612cc9565b612d108683612cc9565b95508019841693508086168417925050509392505050565b6000819050919050565b6000612d4d612d48612d4384612540565b612d28565b612540565b9050919050565b6000819050919050565b612d6783612d32565b612d7b612d7382612d54565b848454612cd6565b825550505050565b600090565b612d90612d83565b612d9b818484612d5e565b505050565b5b81811015612dbf57612db4600082612d88565b600181019050612da1565b5050565b601f821115612e0457612dd581612ca4565b612dde84612cb9565b81016020851015612ded578190505b612e01612df985612cb9565b830182612da0565b50505b505050565b600082821c905092915050565b6000612e2760001984600802612e09565b1980831691505092915050565b6000612e408383612e16565b9150826002028217905092915050565b612e598261248e565b67ffffffffffffffff811115612e7257612e71612675565b5b612e7c8254612b01565b612e87828285612dc3565b600060209050601f831160018114612eba5760008415612ea8578287015190505b612eb28582612e34565b865550612f1a565b601f198416612ec886612ca4565b60005b82811015612ef057848901518255600182019150602085019450602081019050612ecb565b86831015612f0d5784890151612f09601f891682612e16565b8355505b6001600288020188555050505b505050505050565b600081519050919050565b600082825260208201905092915050565b6000612f4982612f22565b612f538185612f2d565b9350612f638185602086016124aa565b612f6c816124d4565b840191505092915050565b6000608082019050612f8c60008301876125d5565b612f9960208301866125d5565b612fa660408301856127fc565b8181036060830152612fb88184612f3e565b905095945050505050565b600081519050612fd2816123ff565b92915050565b600060208284031215612fee57612fed6123c9565b5b6000612ffc84828501612fc3565b91505092915050565b600081905092915050565b600061301b8261248e565b6130258185613005565b93506130358185602086016124aa565b80840191505092915050565b600061304d8285613010565b91506130598284613010565b91508190509392505050565b7f4e487b7100000000000000000000000000000000000000000000000000000000600052601260045260246000fd5b600061309f82612540565b91506130aa83612540565b92508282039050818111156130c2576130c1612c2d565b5b92915050565b7f4e487b7100000000000000000000000000000000000000000000000000000000600052603160045260246000fdfea2646970667358221220b8017d5a014cd2bf2e8cdff3af9a65539b7bce7455e88a4a61f5f45bb78147fc64736f6c63430008180033",
  "linkReferences": {},
  "deployedLinkReferences": {}
}